:020000040800F2
:10000000D81300205D0100086501000867010008A1
:10001000690100086B0100086D0100080000000084
:100020000000000000000000000000006F01000858
:10003000710100080000000073010008E90D0008CC
:100040007701000877010008770100080000000030
:100050000000000077010008770100087701000820
:100060007701000800000000770100087701000810
:100070007701000800000000770100087701000800
:10008000490F000877010008000000007701000810
:1000900077010008000000000000000000000000E0
:1000A00000000000000000000000000077010008D0
:1000B0007701000877010008770100087701000840
:1000C00000F002F800F03AF80AA090E8000C824430
:1000D0008344AAF10107DA4501D100F02FF8AFF20D
:1000E000090EBAE80F0013F0010F18BFFB1A43F016
:1000F00001031847941C0000C41C0000103A24BFE0
:1001000078C878C1FAD8520724BF30C830C144BF7C
:1001100004680C60704700000023002400250026BE
:10012000103A28BF78C1FBD8520728BF30C148BF5A
:100130000B6070471FB51FBD10B510BD00F0EFF884
:100140001146FFF7F7FF01F0E7FD00F00DF903B4EA
:10015000FFF7F2FF03BC00F015F9000009488047E3
:1001600009480047FEE7FEE7FEE7FEE7FEE7FEE799
:10017000FEE7FEE7FEE7FEE704480549054A064BB1
:1001800070470000B90E0008C1000008D80D00201B
:10019000D8130020D80F0020D80F00200FB41CB5B2
:1001A000084B06AA7B4469460090059800F059F870
:1001B00004460020694600F067F820461CBC5DF844
:1001C00014FB0000E1000000032A40F2308010F030
:1001D000030C00F0158011F8013BBCF1020F6244E2
:1001E00098BF11F801CB00F8013B38BF11F8013B73
:1001F000A2F1040298BF00F801CB38BF00F8013B20
:1002000011F0030300F04580083AC0F0088051F86F
:10021000043B083A51F804CBA0E80810F5E7121D9A
:100220005CBF51F8043B40F8043BAFF30080D207B9
:1002300024BF11F8013B11F801CB48BF11F8012B85
:1002400024BF00F8013B00F801CB48BF00F8012BA8
:10025000704770477047704701694A1C026108780F
:10026000704700B58FB0CDE90131002105910549F6
:100270007944CDE903101146684600F03CF80FB010
:1002800000BD0000E5FFFFFF0A6802F8010B0A60ED
:10029000704710B5203AC0F00B80B1E81850203AF2
:1002A000A0E81850B1E81850A0E81850BFF4F5AF16
:1002B0005FEA027C24BFB1E81850A0E8185044BFA0
:1002C00018C918C0BDE810405FEA827C24BF51F80D
:1002D000043B40F8043B08BF7047D20728BF31F801
:1002E000023B48BF11F8012B28BF20F8023B48BF52
:1002F00000F8012B70472DE9F04106460024D6E9AD
:100300000170F5688046304603E04146B847641CFA
:100310003046A8470028F8D12046BDE8F081754650
:1003200000F02CF8AE4605006946534620F0070061
:10033000854618B020B5FFF71FFFBDE820404FF0FD
:1003400000064FF000074FF000084FF0000B21F0BF
:100350000701AC46ACE8C009ACE8C009ACE8C0098C
:10036000ACE8C0098D46704710B50446AFF3008075
:100370002046BDE81040FFF7EABE00000048704785
:10038000780D002001491820ABBEFEE726000200D0
:10039000704740F25D1CC2F2000C604740F2010C55
:1003A000C2F2000C604740F2910CC2F2000C6047B0
:1003B00070B50446002515480078A04202D02046BA
:1003C00000F04EF94FF6FF71114800F03DFC00BF00
:1003D0000F48C06800F010000028F9D10D480068EF
:1003E00020F001000B4908600846006840F0010059
:1003F00008600948007820B10848058800200649AF
:10040000087002480470284670BD00007702002082
:1004100000000A4000000B40760200207402002019
:1004200070B506461C4C72B600211C48FFF7B1FFA0
:10043000054662B6012E00D170BD207820F018006C
:100440002070207820F003002070FF2D0FD0A90825
:10045000207861F3820020706909207861F34510EB
:100460002070A909207861F3871020700CE02078B3
:1004700020F00400001D2070207820F02000207063
:10048000207820F0C00020702278C2F3401190093B
:1004900000F020F800BFCFE7720200200CF0010846
:1004A00001490888704700007202002010B5074C0F
:1004B00072B600210648FFF771FF22780021044838
:1004C0000C30FFF770FF62B610BD00007202002012
:1004D00000F001082DE9F04105460E460F4C0027BB
:1004E00001206070207865F387102070207866F313
:1004F00045102070207820F00400001D207027880F
:100500003946074800F0A0FB00BF0548C06800F06E
:1005100010000028F9D1BDE8F0810000720200202F
:10052000000004400EB53C48C06940F002503A4912
:10053000C8613A4800F062F90120ADF800000020DF
:100540008DF8080001208DF80A008DF802000220C5
:100550008DF809006946314800F05AF91020ADF8CD
:10056000000003208DF8080001208DF80A0000200B
:100570008DF8020002208DF809006946274800F036
:1005800047F9274800F03AF90B20ADF800000120A8
:100590008DF8020003208DF808006946204800F01D
:1005A00037F90420ADF8000000208DF80200032088
:1005B0008DF8080069461A4800F02AF9194800F039
:1005C0001DF90720ADF8000001208DF8020002207F
:1005D0008DF808006946134800F01AF90820ADF8B4
:1005E000000000208DF8020002208DF80800694606
:1005F0000C4800F00DF900F073FA0848006840F06C
:1006000001000649086000F079FC0020FFF708FFB0
:1006100000F00AF80EBD00000000024000000B4090
:1006200000800B4000800E400EB53F20ADF800006A
:1006300001208DF8020000208DF8080001208DF8BF
:100640000A008DF809006946044800F0E1F8034803
:10065000006820F03F00014908600EBD00800A409C
:10066000064A32F81010064A126822F03F02044B84
:100670001A6041EA2122D2B21A6070474402002077
:1006800000800A4070B504460D46532C05D10AA1DE
:100690002846FFF783FDC0B270BD4E2C05D10BA1DB
:1006A0002846FFF77BFDC0B2F6E70AA12846FFF710
:1006B00075FDC0B2F0E700003131323334353637E2
:1006C00038394142434445450D000000416E496EB2
:1006D0000D00000056465F302E310D001CB5002085
:1006E00001904048408900B91CBD012201A93D4844
:1006F00000F090F99DF80400432810D0522834D01F
:1007000056285DD1012201A9364800F083F9364907
:100710009DF80400FFF7B6FF3449087059E0012244
:1007200001A9304800F076F99DF80400522804D061
:10073000532808D0742812D10BE02B4800F05CF944
:100740002A4908700FE0284800F080FA274908700D
:1007500009E0254800F086FA2449087003E00020EB
:100760002249087000BF00BF33E0022269461D48DD
:1007700000F050F99DF8010001F0F4FA04469DF8EC
:10078000000001F0EFFA44EA0010C0B201909DF8B9
:100790000400FFF70DFE164908800846007812494C
:1007A000087013480088001248700D2088700320DC
:1007B0000E4908700F480088401C0E49088008E068
:1007C0000DA10948FFF7EAFC0849087000200870ED
:1007D00000BF00BF05480178034800F055FD00BF89
:1007E00082E7000038030020140D002030030020B1
:1007F00034030020320300200D0000000021C160FE
:10080000016141600160816041618161C161704746
:100810002DE9FE4F4768D0F808C0D0F80C80D0F81A
:100820001090D0F814A0CDF808A0D0F818A0CDF8FA
:1008300004A0D0F81CA0CDF800A0002201230325BD
:100840004FF001160C885FE004F0010ABAF1000FC6
:1008500055D027EA030A91F802B00BFA02FB4AEAE4
:100860000B0791F808A04FEA420B0AFA0BFA2CEAA0
:10087000050B4AEA0B0C28EA030A91F80AB00BFAB6
:1008800002FB4AEA0B0829EA060A91F803B002F1D2
:10089000100E0BFA0EFB4AEA0B0A91F804B00BFAA1
:1008A00002FB4AEA0B09DDF808A02AEA060A91F8D9
:1008B00005B00BFA0EFB4AEA0B0A91F806B00BFAE8
:1008C00002FB4AEA0B0ACDF808A091F809A04FEA0A
:1008D000420B0AFA0BFADDF804B02BEA050B4AEAE0
:1008E0000B0ACDF804A0DDF800A02AEA030A91F86B
:1008F00007B00BFA02FB4AEA0B0ACDF800A05B0036
:10090000AD007600521C6408002C9DD1DFF8C4A015
:10091000504502D14FF01F0A01E04FF0000A27EACC
:100920000A0AC0F804A0DFF8ACA0504502D14FF08D
:100930001F0A01E04FF0000A2CEA0A0AC0F808A0DA
:10094000DFF890A0504502D14FF01F0A01E04FF0B0
:10095000000A28EA0A0AC0F80CA0DFF878A050457F
:1009600002D14FF01F0A01E04FF0000A29EA0A0AFB
:10097000C0F810A0DFF85CA0504502D14FF01F0B6B
:1009800001E04FF0000BDDF808A02AEA0B0AC0F8DE
:1009900014A0DFF840A0504502D14FF01F0B01E03A
:1009A0004FF0000BDDF804A02AEA0B0AC0F818A0EB
:1009B000DFF820A0504502D14FF01F0B01E04FF0AF
:1009C000000BDDF800A02AEA0B0AC0F81CA0BDE865
:1009D000FE8F000000000C4029B1064AD269024394
:1009E000044BDA6104E0034AD2698243014BDA61C5
:1009F000704700000000024070B504460025FFF774
:100A00004FFD29466D1C60540D2229466D1C625411
:100A1000284670BD2DE9F04104460F461546608911
:100A2000A84201DABDE8F081A088E288801A81B28C
:100A3000284601F08FF90646A81B1FFA80F8E288C5
:100A40002068811832463846FFF7BEFBB819424687
:100A50002168FFF7B9FBE0882844A18890FBF1F2F8
:100A600001FB1200E0806089401B608100BFD9E774
:100A700001600023C38003818280438170472DE998
:100A8000F04104460F461546A0886189401AA842E5
:100A900001DABDE8F081A0882289801A81B2284657
:100AA00001F058F90646A81B1FFA80F82289216830
:100AB000881832463946FFF787FBB9194246206845
:100AC000FFF782FB20892844A18890FBF1F201FB0B
:100AD0001200208160892844608100BFD9E70000AE
:100AE0001FB5314800F090F83048C06940F480707C
:100AF0002E49C86101212C4800F05CF80020ADF8B7
:100B00000C00ADF804000820ADF806000020ADF898
:100B10000A00ADF808000220ADF80E00ADF80200A2
:100B20001320ADF8000069461F4800F076F8012157
:100B30001D4800F05DF81D48C06A40F080701B49F8
:100B4000C8621B4800F060F81848C06940F4801083
:100B50001649C8610121164800F02CF80020ADF8B4
:100B60000C00ADF804000F20ADF806000020ADF831
:100B70000A008020ADF808000220ADF80E00ADF8A4
:100B800002000120ADF800006946094800F045F870
:100B90000121074800F02CF80448C06A40F00070BA
:100BA0000249C8621FBD000000000440000002406E
:100BB00000000A4002460B4BD86A0B4B9A4205D103
:100BC00040F0807020F0FF00084308E0074B9A4295
:100BD00005D140F0007020F47F4040EA0120014B35
:100BE000D8627047000002400000044000000A4044
:100BF00021B1426842F00202426004E042684FF6CE
:100C0000FD731A404260704700210160416001613C
:100C10004161416203210162704710B54B88036155
:100C20000B890C8803EB04234C8923448C892344CF
:100C3000CC881A190260CB898C881A19426010BDC1
:100C40000146886880B270478160704770B504467D
:100C50000025FFF72BFC0D2229466D1C6254284607
:100C600070BD00002DE9F0410446002501220C4929
:100C70000C48FFF7CFFE0A48401E4078861108480E
:100C8000401E4078C0F3401739463046FFF722FC3B
:100C90000D2229466D1C62542846BDE8F0810000F3
:100CA000150D0020380300200EB5002002900190A1
:100CB0003B48806840F001003949886000BF3848EF
:100CC000006800F0040001900298B0F5C06F02D2F5
:100CD00001980028F3D0002002903148006800F00D
:100CE000040010B10120019001E000200190019862
:100CF000012853D12A49C96841F00201284AD1602C
:100D00001146496841F4106151601146496801F08B
:100D10000401042907D11146486840F008004860E2
:100D200020F0080048601E49496841F004011C4A4F
:100D3000516000BF1A49096801F00201009102994F
:100D4000491C02910299B1F5C06F02D200990029A5
:100D5000F0D01349C96941F00801114AD161114924
:100D6000096841F018010F4A11600D49C96841F046
:100D700004010B4AD1601146C968D1601146C968A7
:100D800021F44071D1601146C96841F48071D1608D
:100D90001146C96941F4C001D16100BF0EBD000018
:100DA000000002400080014010B501210420FFF73F
:100DB00013FE02200A4908600520486010200949F6
:100DC00088602020486010200860054800F0CAFABA
:100DD0001F2000F07FFF00F0F1FA00F02FFA10BDA5
:100DE00024020020900700200C48006820B10B4826
:100DF0000068401E0949086009480068401C08490D
:100E000008604FF0FF3000F01F0201219140054AB9
:100E1000430942F8231000BF704700002803002058
:100E20002C03002080E200E030B5204CE46804F0A0
:100E30000204022C01D11E4800E01D481B4CE4684E
:100E400004F0010404B140080146184CE46804F0C1
:100E50000404042C05D1154C6468C4F30324631CFA
:100E60005943124CE468C4F3012424B1012C06D088
:100E7000022C13D10DE00E4C0E4D2C6013E00B4CE8
:100E8000E468C4F30314641CB1FBF4F2094C22605F
:100E900009E04FF40044074D2C6004E049F640445B
:100EA000044D2C6000BF00BF30BD000000000240B8
:100EB00000127A002002002010B50E480E49C861C9
:100EC0000846C0680020C8600846406800204860A6
:100ED0000846806800208860084600690020086194
:100EE0000846406900204861FFF79EFFFFF7DCFEDF
:100EF00010BD000010000008000002400020104952
:100F0000C86088650F48C06940F480300D49C861E9
:100F10000846406A40F0806048620948006D084910
:100F2000086508208865C814C86010200121814028
:100F30004209920002F1E022C2F8001100BF70479E
:100F4000000008400000024010B50F48007890B93A
:100F50000E48406D00F0080068B10D48FFF770FEC4
:100F60000C4908800120084908700848406D20F0AD
:100F7000080006494865102001218140064A4309BE
:100F800042F8231000BF10BD760200200000084088
:100F900000000A407402002080E200E001460D4A91
:100FA000106940F480700A68104340F00400094A58
:100FB0001061506840F001004A6840EA0210054A9A
:100FC000506000BF034A126802F00102002AF9D003
:100FD00070470000000002402DE9F0410025224842
:100FE00047888688C4884078202802D021281ED1CE
:100FF0000BE0072C07D11D4B22461D49002000F0B5
:1010000047FD054600E0022513E0072C0DD11849E5
:10101000304600F0ABF8054645B9164B2246144958
:10102000002000F00FFD054600E0022501E001254B
:1010300000BF00BFA5B99CB90B48007800F0800044
:10104000802806D100231A461946184600F020FDD4
:1010500005E000231A461946184600F0F3FC054641
:101060002846BDE8F0810000180300207910000830
:10107000100300204D1300082DE9F04105460E46EF
:1010800017460C484078202806D10A4988883146FE
:1010900000F012F9044601E0022400BF00BF3CB991
:1010A00000231A461946284600F0CCFCBDE8F08122
:1010B0002046FBE7180300202DE9F04705460F46C0
:1010C00016464FF00009C846E8B210B14FF00108CB
:1010D0002EE02812012804D0022806D0032823D1AC
:1010E00007E0DFF86C90122421E0DFF868904324D9
:1010F0001DE0F8B230B1012808D002280AD0032838
:1011000010D10BE0DFF8509004240BE0DFF84C9096
:10111000122407E0DFF84890122403E0DFF844903F
:101120001A2400BF00BF02E04FF0010800BF00BF5B
:10113000B8F1000F09D1B44200D934460A4B224617
:101140004946002000F07EFC80464046BDE8F0871E
:10115000780200208A020020CD020020D102002067
:10116000E3020020F50200204D13000802460AB1F8
:1011700002207047024B09CBC1E900030020F8E7C9
:101180002C02002030B504460D4613462946204661
:1011900000F0A0F800200549088103B101E04FF4F8
:1011A000007002494881002030BD00004C0C002036
:1011B0002DE9F04107460C4615462946204600F029
:1011C00021F806461EB14FF40070084948810748CF
:1011D000408940B905484268054B0168032000F08A
:1011E00057FCBDE8F0810020FBE700004C0C00201C
:1011F000B111000810B503460020014C208110BD3C
:101200004C0C002010B50346094800680844084CFF
:1012100020602AB9074800680844064C206004E0B2
:10122000054800680844044C2060002010BD000000
:10123000380200203C0200204002002010B500F0DF
:10124000C9F80446CCB900220521012000F06AFA51
:1012500000220521022000F065FA0022012103206E
:1012600000F060FA0648408938B905484268054BE5
:101270000168032000F00CFC0446204610BD00006D
:101280004C0C0020B111000870B504460D4608480A
:10129000068956B94FF4007005490881054B2A4666
:1012A0002146012000F0CEFB0646304670BD00000E
:1012B0004C0C0020F511000810B502460AB10220BE
:1012C00010BD0348D1E9003418C00020F8E7000041
:1012D0002C02002002460248026041600020704754
:1012E0004C0C002070B504460D461646022C04D165
:1012F0001DB9F0B200F0F6F970BD0120FCE7000066
:1013000070B5002610480068D8B901200E49086061
:1013100000F068FC044604F0040010B100F05AF834
:101320000646002504E0E8B2214600F057FA6D1C9D
:10133000042DF8D324F0010000F0DCFC0020024969
:101340000860304670BD00002403002070B50446DC
:101350000D46164600231A461946204600F098FB13
:1013600070BD000070B505460C462846FFF716FE16
:1013700000F03EFC4FF4803000F058FC206800F094
:1013800055FCD4E90112114341F0010000F064FC66
:1013900000220521104600F0C5F9054A0549002044
:1013A00000F0D2FB002004490870886070BD000086
:1013B0006516000818030020080D002010B50C2049
:1013C00000F034FC022002490870002010BD00002B
:1013D000080D00200320024908700020704700001B
:1013E000080D002070B504460D461646022C05D1A6
:1013F00025B9F0B2012100F0CFF970BD0120FCE762
:101400002DE9F34F81B00C464FF00008207800F032
:10141000600A207800F080000090BAF1000F06D03A
:10142000BAF1200F77D0BAF1400F75D108E14FF033
:10143000000B6788A688B4F80690207800F01F0596
:10144000032D02DD4FF0020800E160780D2872D212
:10145000DFE800F00740D454D46A72797C8FA1B2DF
:10146000C0000098802809D17A480078042808D163
:10147000012D03D0022D04D1042E02DB4FF0010810
:1014800027E04FF00008B8F1000F22D125B1012D5F
:1014900006D0022D13D107E000206F4908700EE03E
:1014A00000206D4908700AE006EB460000EBC6001C
:1014B0006A4901EB800040786749087000BF00BFAF
:1014C00000206549487000230222019800F0BAFA12
:1014D000804696E05F480078042808D1012D03D0AB
:1014E000022D04D1042E02DB4FF0010805E0324644
:1014F00039462846FFF7F6FE804682E055480078D8
:1015000004280AD1012D03D0022D06D1042E04DBBC
:101510004FF0010807E08FE095E032463946284653
:10152000FFF760FF80466CE04FF000084948876095
:10153000DFF82CB165E061E04A4631463846FFF7F6
:10154000BBFD80465DE04FF001085AE0414800785D
:10155000042803D100204049087002E001203E49E0
:101560000870002301223C49019800F06BFA804684
:1015700047E01FB90420374908700BE0012F01D064
:10158000012000E000208046B8F1000F02D10520C4
:101590003049087035E02F480078042802D14FF018
:1015A000010808E000202C4908700023012201985E
:1015B00000F048FA804624E026480078042802D14A
:1015C0004FF0010805E006B90FB1012000E000204E
:1015D000804616E01F480078042802D14FF0010829
:1015E0000BE04FF00108B8F1000F06D100230222F2
:1015F0001949019800F026FA804602E04FF00208EF
:1016000000BF00BFB8F1000F15D1B9F1000F12D122
:10161000207800F08000802806D15B460022114629
:10162000019800F035FA05E05B460022114601986A
:1016300000F008FA804609E0FFF7CEFC804605E09E
:101640004FF0010802E04FF0020800BF00BF404623
:10165000BDE8FE8F080D002020030020580C00205C
:10166000BD16000870B505460C461248006800EB30
:101670004000114901EB8000216801606168416010
:1016800000F082FA0B49096801EB41010A4A02EBBA
:101690008101886007480068642803D20548006813
:1016A000401C00E000200349086021462846FFF75F
:1016B000A7FE70BD340200209C07002070B50446D0
:1016C0000D4616460649886800F0C0FA044880684E
:1016D00008B1042000E0032001490870002070BD1B
:1016E000080D002070B5064606EB460000EBC6006C
:1016F0000B4901EB80044FF40025607E08B9A07E01
:1017000020B10120207045F0020501E0002020708A
:10171000002060702946304600F028F8002070BD97
:10172000580C00202DE9F04105460F46164605EB02
:10173000450000EBC5000C4901EB8004002060600F
:101740000021A1602161E1606161E061206260626D
:10175000A6626070207020763946284600F08CFA28
:101760000020BDE8F0810000580C002070B5044650
:101770000D4604EB440000EBC400064901EB800673
:101780001F2000F0B7FA002030762946204600F0EE
:1017900073FA70BD580C00202DE9F04105460C4647
:1017A00005EB450000EBC5000B4901EB8006002767
:1017B000012C03D115B90120BDE8F081012C01D025
:1017C000B07E18B17470052030700A27394628465B
:1017D000FFF7CCFF0020EFE7580C00202DE9F34F76
:1017E00081B08346002000900026584600F0EAF9B8
:1017F0008246584600F0EEF900F00309584600F022
:10180000C9F907460BEB4B0000EBCB008B4901EB12
:101810008004029800F0010008B10120207600BF8A
:101820002078062827D2DFE800F003062773BBF2F2
:101830000020BDE8FE8F07F00200E0B9207ED0B1A5
:10184000B9F1020F08D1607E30B103202070002072
:101850006076012000900EE0B9F1000F06D1A07E65
:1018600020B1042020700120009004E00126002116
:101870005846FFF791FFD9E007F0020050BB207EE9
:1018800040B3B9F1010F25D10AF0400010B3D4E9FB
:1018900003100144E160D4E90201814215D3002024
:1018A0002070E06928B15846E369D4E901129847ED
:1018B00006462EB9207828BB5846FFF713FF26E0CE
:1018C00000215846FFF768FF21E00121584600F04B
:1018D000FDF81CE00AF00F00A0B100202070A06A03
:1018E00038B13B464A4651465846D4F828C0E047EE
:1018F000064646B9207828B90220207000215846B3
:1019000000F0E4F803E000215846FFF745FF8DE0C2
:1019100007F00200002842D1207E00283FD000209E
:101920000090584600F046F98046002508E05846E9
:1019300000F038F9C1B2E0682844626811546D1CA7
:101940004545F4D3A8F1010082B23D486168FFF734
:1019500096F80121584600F0A5F9E06800EB08016F
:10196000E160D4E90201814215D300202070206A91
:1019700028B15846236AE2686168984706462EB93E
:10198000207860B95846FFF7ADFE08E000215846C0
:10199000FFF702FF03E002215846FFF7E7FE45E0AC
:1019A000207E08B3584600F005F98046B8F1080FCC
:1019B00020D1002506E0584600F0F4F8C1B2606975
:1019C00041556D1C4545F6D30121584600F06AF992
:1019D0005846626A61699047064636B920780428FD
:1019E00011D15846FFF77EFE0DE000215846FFF763
:1019F000D3FE08E00121584600F054F901260021E9
:101A00005846FFF7C9FE002000900FE0FFE707F0FF
:101A1000020050B96078012804D101215846FFF72F
:101A2000BBFE02E05846FFF75DFE00BF00BF009816
:101A300000287FF4F5AE3046FBE60000580C00208D
:101A4000380300202DE9F04705460E461746984614
:101A500005EB450000EBC5000C4901EB8004A07EBE
:101A600008B1022000E0012081466660A7602021C5
:101A700021610021E160C4F81C80022020704946E9
:101A8000284600F023F80020BDE8F087580C00201D
:101A90002DE9F04105460E461746984605EB4500F0
:101AA00000EBC500084901EB80046660A7600021D7
:101AB0002161E160C4F82080012060762846FFF7AC
:101AC00011FE0020BDE8F081580C00202DE9F04106
:101AD00006460F4606EB460000EBC600194901EB2F
:101AE00080040121304600F0EDF827B1012F03D02A
:101AF000022F0AD104E008E0304600F089F804E043
:101B00000421304600F0B8F800BF00BFD4E903104C
:101B10000144A068814203D2D4E90310084400E0E4
:101B2000A0688046E56805E06068415D304600F0E9
:101B3000C1F86D1C4545F7D302213046FFF716FE6C
:101B4000BDE8F081580C00202DE9F04106460F4613
:101B5000154606EB460000EBC6000A4901EB80047F
:101B600067610021A1602161E16065620DB1012022
:101B700000E00020A0763046FFF7B4FD0020BDE86D
:101B8000F0810000580C00200148006870470000F8
:101B9000500101400146024800EB01100068704707
:101BA000000101400146024800EBC1100068704787
:101BB000800101400146024800EBC110C068704737
:101BC000800101400146024800EB01104068704767
:101BD000000101400146024800EB01108068704797
:101BE00000010140014800687047000048010140C1
:101BF00000B5022000F01AF8002300E05B1CB3F5EA
:101C00007A7FFBD34FF4003000F010F800BD0000E5
:101C1000054A02EB0012116881F00401024A02EB4E
:101C200000121160704700000001014000BF054A2A
:101C3000116882B2114321EA1041034AC2F88013AD
:101C400000BF704780030140000001400149086067
:101C5000704700005001014000BF054A116882B280
:101C6000114321EA1041034AC2F8401100BF7047F6
:101C7000400101400000014010B500BF074C04EBDB
:101C80000013D3F800218BB21A4322EA1142044B0D
:101C900003EB00131A6000BF10BD000000000140FC
:101CA00000010140024A02EBC012116170470000BE
:101CB00080010140024A02EBC0121164704700002B
:101CC00080010140024A02EBC0121165704700001A
:101CD0008001014000BF054A116882B2114321EA28
:101CE0001041034AC2F84C1100BF70474C0101403B
:101CF00000000140014908607047000048010140B0
:101D00004FF4E13003490860002008714871082051
:101D1000887170472C020020FFF7F2FF0122114664
:101D20000948FFF72FFAFFF73FF84FF47A72074997
:101D30000748FEF79DFEFEF7F5FB03E0FFF7E0FA2C
:101D4000FEF7CCFCFAE7000044030020A8030020C3
:101D50003803002002468A4201DA104600E00846B5
:101D6000C0B270470146612903DBA1F15700C0B240
:101D70007047412903DBA1F13700C0B2F8E7A1F1B8
:101D80003000C0B2F4E70000B81D000800000020D9
:101D900020020000FC000008D81F000820020020DC
:101DA00018010000FC000008F020000838030020A3
:101DB000A0100000180100082DE9F04106460F466A
:101DC0001F48204908610846006800F03800441C9C
:101DD000012F01D1481500E0002004431948046098
:101DE000002522E07019174948600020886044F4FB
:101DF000886408460460052000F0E4F844F40054C8
:101E00001048046049F6404000F0DCF824F4806497
:101E10000C480460052000F0D5F824F4015409486A
:101E20000460012000F0CEF82D1D102DDAD304F04F
:101E3000380404480460002002490861BDE8F081CC
:101E40005155AA8A008001402DE9F0470546884691
:101E50001446A807C70EBC40FF2000FA07F641460B
:101E6000284600F085F8814629EA060004EA0601C2
:101E700040EA01024146284600F002F8BDE8F0873A
:101E80002DE9F04106460D461746204820490861D5
:101E9000012D01D1481500E0002005461C480068CE
:101EA00000F0380445F0010004431948046046601E
:101EB000876044F482540460052000F083F844F401
:101EC0000054134804600A2000F07CF844F08004B9
:101ED0000F480460282000F075F824F080040C48B6
:101EE000046024F480540460052000F06BF824F4AE
:101EF000015407480460012000F064F804F0380041
:101F00000349086000200861BDE8F0815155AA8AA4
:101F10000080014070B502460B461348134E3061F5
:101F20003046006800F03800411C012B01D15802F6
:101F300000E0002001430D480160426041F4E07080
:101F40000A4E30603046C0683046C0683046C068CF
:101F50003046C56801F0380101600020306190070B
:101F6000C40EE540E8B270BD5155AA8A0080014018
:101F700030B502460B46114C114D2C612C4624689D
:101F800004F03804611C012B01D15C0200E0002444
:101F900021430B4C2160626041F4E074084D2C60D9
:101FA0002C46E4682C46E4682C46E4682C46E0683D
:101FB00001F03801216000242C6130BD5155AA8AFE
:101FC0000080014008B5009002E00099491E009190
:101FD00000990029F9D108BD00127A000000000024
:101FE00000000000000000000000000000000000F1
:101FF00000000000000000000000000000000400DD
:102000000401040204030800080108020803100088
:10201000000000000000000000000000100110029D
:102020001003200020012002200300000000000017
:102030001201000202000020830427F102000102C5
:10204000030109024300020100803209040000017B
:1020500002020100052400100105240100010424EE
:102060000206052406000107058203200002090478
:102070000100020A00000007058102200000070598
:1020800003020800000403090412032D0041004D5F
:102090000045002D002D002D002D00120344006985
:1020A00000730063007200650074002D001A033095
:1020B000003000300031004100300030003000308E
:1020C0000030003000300000000000000000000080
:1020D0000000000000000000000000000000000000
:1020E00000000000000000000000000000000000F0
:04000005080000C12E
:00000001FF
